{
  "_format": "hh-sol-artifact-1",
  "contractName": "NFTicket",
  "sourceName": "contracts/NFTicket.sol",
  "abi": [
    {
      "anonymous": false,
      "inputs": [
        {
          "indexed": true,
          "internalType": "address",
          "name": "accountOwner",
          "type": "address"
        },
        {
          "indexed": true,
          "internalType": "address",
          "name": "erc20Contract",
          "type": "address"
        },
        {
          "indexed": false,
          "internalType": "uint256",
          "name": "amountERC20Tokens",
          "type": "uint256"
        },
        {
          "indexed": false,
          "internalType": "address",
          "name": "from",
          "type": "address"
        },
        {
          "indexed": true,
          "internalType": "address",
          "name": "to",
          "type": "address"
        }
      ],
      "name": "AccountWithDrawERC20",
      "type": "event"
    },
    {
      "anonymous": false,
      "inputs": [
        {
          "indexed": true,
          "internalType": "address",
          "name": "owner",
          "type": "address"
        },
        {
          "indexed": true,
          "internalType": "address",
          "name": "approved",
          "type": "address"
        },
        {
          "indexed": true,
          "internalType": "uint256",
          "name": "tokenId",
          "type": "uint256"
        }
      ],
      "name": "Approval",
      "type": "event"
    },
    {
      "anonymous": false,
      "inputs": [
        {
          "indexed": true,
          "internalType": "address",
          "name": "owner",
          "type": "address"
        },
        {
          "indexed": true,
          "internalType": "address",
          "name": "operator",
          "type": "address"
        },
        {
          "indexed": false,
          "internalType": "bool",
          "name": "approved",
          "type": "bool"
        }
      ],
      "name": "ApprovalForAll",
      "type": "event"
    },
    {
      "anonymous": false,
      "inputs": [
        {
          "indexed": true,
          "internalType": "uint256",
          "name": "_tID",
          "type": "uint256"
        },
        {
          "indexed": false,
          "internalType": "uint256",
          "name": "creditsConsumed",
          "type": "uint256"
        },
        {
          "indexed": false,
          "internalType": "uint256",
          "name": "creditsRemain",
          "type": "uint256"
        }
      ],
      "name": "ConsumedCredits",
      "type": "event"
    },
    {
      "anonymous": false,
      "inputs": [
        {
          "indexed": true,
          "internalType": "uint256",
          "name": "ticketID",
          "type": "uint256"
        },
        {
          "indexed": true,
          "internalType": "address",
          "name": "erc20Contract",
          "type": "address"
        },
        {
          "indexed": false,
          "internalType": "address",
          "name": "sender",
          "type": "address"
        },
        {
          "indexed": false,
          "internalType": "address",
          "name": "owner",
          "type": "address"
        },
        {
          "indexed": false,
          "internalType": "uint256",
          "name": "creditsAdded",
          "type": "uint256"
        },
        {
          "indexed": false,
          "internalType": "uint256",
          "name": "tokensAdded",
          "type": "uint256"
        },
        {
          "indexed": true,
          "internalType": "uint32",
          "name": "serviceDescriptor",
          "type": "uint32"
        }
      ],
      "name": "IncomingFunding",
      "type": "event"
    },
    {
      "anonymous": false,
      "inputs": [
        {
          "indexed": false,
          "internalType": "uint8",
          "name": "version",
          "type": "uint8"
        }
      ],
      "name": "Initialized",
      "type": "event"
    },
    {
      "anonymous": false,
      "inputs": [
        {
          "indexed": true,
          "internalType": "address",
          "name": "serviceProvideContract",
          "type": "address"
        },
        {
          "indexed": true,
          "internalType": "uint32",
          "name": "serviceDescriptor",
          "type": "uint32"
        },
        {
          "indexed": false,
          "internalType": "uint16",
          "name": "status",
          "type": "uint16"
        }
      ],
      "name": "RegisterServiceProvider",
      "type": "event"
    },
    {
      "anonymous": false,
      "inputs": [
        {
          "indexed": true,
          "internalType": "address",
          "name": "serviceProvideContract",
          "type": "address"
        },
        {
          "indexed": true,
          "internalType": "uint32",
          "name": "serviceDescriptor",
          "type": "uint32"
        },
        {
          "indexed": true,
          "internalType": "address",
          "name": "erc20Contract",
          "type": "address"
        },
        {
          "indexed": false,
          "internalType": "uint16",
          "name": "status",
          "type": "uint16"
        }
      ],
      "name": "RegisterServiceProviderWithERC20",
      "type": "event"
    },
    {
      "anonymous": false,
      "inputs": [
        {
          "indexed": false,
          "internalType": "string",
          "name": "name",
          "type": "string"
        },
        {
          "components": [
            {
              "internalType": "string",
              "name": "name",
              "type": "string"
            },
            {
              "internalType": "uint32",
              "name": "size",
              "type": "uint32"
            },
            {
              "internalType": "string[]",
              "name": "keys",
              "type": "string[]"
            },
            {
              "internalType": "uint8[]",
              "name": "keyTypes",
              "type": "uint8[]"
            }
          ],
          "indexed": false,
          "internalType": "struct DataSchema",
          "name": "schema",
          "type": "tuple"
        }
      ],
      "name": "SchemaRegistered",
      "type": "event"
    },
    {
      "anonymous": false,
      "inputs": [
        {
          "indexed": true,
          "internalType": "uint256",
          "name": "newTicketID",
          "type": "uint256"
        },
        {
          "indexed": false,
          "internalType": "uint256",
          "name": "value",
          "type": "uint256"
        },
        {
          "indexed": false,
          "internalType": "uint256",
          "name": "serviceFee",
          "type": "uint256"
        },
        {
          "indexed": false,
          "internalType": "uint256",
          "name": "resellerFee",
          "type": "uint256"
        },
        {
          "indexed": false,
          "internalType": "uint256",
          "name": "transactionFee",
          "type": "uint256"
        }
      ],
      "name": "SplitRevenue",
      "type": "event"
    },
    {
      "anonymous": false,
      "inputs": [
        {
          "indexed": true,
          "internalType": "address",
          "name": "_contract",
          "type": "address"
        },
        {
          "indexed": true,
          "internalType": "uint256",
          "name": "ticketID",
          "type": "uint256"
        },
        {
          "indexed": true,
          "internalType": "uint256",
          "name": "serviceType",
          "type": "uint256"
        },
        {
          "indexed": false,
          "internalType": "uint256",
          "name": "deductedFee",
          "type": "uint256"
        }
      ],
      "name": "TicketSubmitted",
      "type": "event"
    },
    {
      "anonymous": false,
      "inputs": [
        {
          "indexed": true,
          "internalType": "uint256",
          "name": "ticketID",
          "type": "uint256"
        },
        {
          "indexed": false,
          "internalType": "uint256",
          "name": "amountCredits",
          "type": "uint256"
        },
        {
          "indexed": true,
          "internalType": "address",
          "name": "erc20Contract",
          "type": "address"
        },
        {
          "indexed": false,
          "internalType": "uint256",
          "name": "amountERC20Tokens",
          "type": "uint256"
        },
        {
          "indexed": false,
          "internalType": "address",
          "name": "from",
          "type": "address"
        },
        {
          "indexed": true,
          "internalType": "address",
          "name": "to",
          "type": "address"
        }
      ],
      "name": "TicketWithDrawCredits",
      "type": "event"
    },
    {
      "anonymous": false,
      "inputs": [
        {
          "indexed": true,
          "internalType": "uint256",
          "name": "ticketID",
          "type": "uint256"
        },
        {
          "indexed": true,
          "internalType": "address",
          "name": "erc20Contract",
          "type": "address"
        },
        {
          "indexed": false,
          "internalType": "uint256",
          "name": "amountERC20Tokens",
          "type": "uint256"
        },
        {
          "indexed": false,
          "internalType": "address",
          "name": "from",
          "type": "address"
        },
        {
          "indexed": true,
          "internalType": "address",
          "name": "to",
          "type": "address"
        }
      ],
      "name": "TicketWithDrawERC20",
      "type": "event"
    },
    {
      "anonymous": false,
      "inputs": [
        {
          "indexed": true,
          "internalType": "uint256",
          "name": "ticketID",
          "type": "uint256"
        },
        {
          "indexed": false,
          "internalType": "uint256",
          "name": "creditsAdded",
          "type": "uint256"
        },
        {
          "indexed": true,
          "internalType": "address",
          "name": "erc20Contract",
          "type": "address"
        },
        {
          "indexed": false,
          "internalType": "uint256",
          "name": "amountERC20Tokens",
          "type": "uint256"
        },
        {
          "indexed": false,
          "internalType": "uint256",
          "name": "creditsAffordable",
          "type": "uint256"
        },
        {
          "indexed": false,
          "internalType": "uint256",
          "name": "chargedERC20",
          "type": "uint256"
        }
      ],
      "name": "TopUpTicket",
      "type": "event"
    },
    {
      "anonymous": false,
      "inputs": [
        {
          "indexed": true,
          "internalType": "address",
          "name": "from",
          "type": "address"
        },
        {
          "indexed": true,
          "internalType": "address",
          "name": "to",
          "type": "address"
        },
        {
          "indexed": true,
          "internalType": "uint256",
          "name": "tokenId",
          "type": "uint256"
        }
      ],
      "name": "Transfer",
      "type": "event"
    },
    {
      "inputs": [
        {
          "internalType": "address",
          "name": "white",
          "type": "address"
        }
      ],
      "name": "addWhitelist",
      "outputs": [],
      "stateMutability": "nonpayable",
      "type": "function"
    },
    {
      "inputs": [
        {
          "internalType": "address",
          "name": "to",
          "type": "address"
        },
        {
          "internalType": "uint256",
          "name": "tokenId",
          "type": "uint256"
        }
      ],
      "name": "approve",
      "outputs": [],
      "stateMutability": "nonpayable",
      "type": "function"
    },
    {
      "inputs": [
        {
          "internalType": "address",
          "name": "owner",
          "type": "address"
        }
      ],
      "name": "balanceOf",
      "outputs": [
        {
          "internalType": "uint256",
          "name": "",
          "type": "uint256"
        }
      ],
      "stateMutability": "view",
      "type": "function"
    },
    {
      "inputs": [
        {
          "internalType": "uint256",
          "name": "tokenId",
          "type": "uint256"
        }
      ],
      "name": "getApproved",
      "outputs": [
        {
          "internalType": "address",
          "name": "",
          "type": "address"
        }
      ],
      "stateMutability": "view",
      "type": "function"
    },
    {
      "inputs": [
        {
          "internalType": "uint256",
          "name": "tokenId",
          "type": "uint256"
        }
      ],
      "name": "getApprovedTicket",
      "outputs": [
        {
          "internalType": "address",
          "name": "approvedAddress",
          "type": "address"
        }
      ],
      "stateMutability": "view",
      "type": "function"
    },
    {
      "inputs": [
        {
          "internalType": "uint256",
          "name": "ticketID",
          "type": "uint256"
        },
        {
          "internalType": "address",
          "name": "",
          "type": "address"
        }
      ],
      "name": "getPPCofTicket",
      "outputs": [
        {
          "internalType": "uint256",
          "name": "ppC",
          "type": "uint256"
        }
      ],
      "stateMutability": "view",
      "type": "function"
    },
    {
      "inputs": [
        {
          "internalType": "address",
          "name": "serviceProvider",
          "type": "address"
        },
        {
          "internalType": "address",
          "name": "erc20Contract",
          "type": "address"
        }
      ],
      "name": "getResellerPoolSize",
      "outputs": [
        {
          "internalType": "uint256",
          "name": "poolSize",
          "type": "uint256"
        }
      ],
      "stateMutability": "view",
      "type": "function"
    },
    {
      "inputs": [
        {
          "internalType": "address",
          "name": "serviceProvider",
          "type": "address"
        },
        {
          "internalType": "address",
          "name": "erc20Contract",
          "type": "address"
        }
      ],
      "name": "getServiceProviderPoolSize",
      "outputs": [
        {
          "internalType": "uint256",
          "name": "poolSize",
          "type": "uint256"
        }
      ],
      "stateMutability": "view",
      "type": "function"
    },
    {
      "inputs": [
        {
          "internalType": "uint256",
          "name": "ticketID",
          "type": "uint256"
        },
        {
          "internalType": "address",
          "name": "",
          "type": "address"
        }
      ],
      "name": "getTicketBalance",
      "outputs": [
        {
          "internalType": "uint256",
          "name": "",
          "type": "uint256"
        }
      ],
      "stateMutability": "view",
      "type": "function"
    },
    {
      "inputs": [
        {
          "internalType": "uint256",
          "name": "ticketID",
          "type": "uint256"
        }
      ],
      "name": "getTicketBalance",
      "outputs": [
        {
          "internalType": "uint256",
          "name": "",
          "type": "uint256"
        }
      ],
      "stateMutability": "view",
      "type": "function"
    },
    {
      "inputs": [
        {
          "internalType": "uint256",
          "name": "ticketID",
          "type": "uint256"
        }
      ],
      "name": "getTicketData",
      "outputs": [
        {
          "components": [
            {
              "internalType": "uint256",
              "name": "tokenID",
              "type": "uint256"
            },
            {
              "internalType": "address",
              "name": "serviceProvider",
              "type": "address"
            },
            {
              "internalType": "uint32",
              "name": "serviceDescriptor",
              "type": "uint32"
            },
            {
              "internalType": "address",
              "name": "issuedTo",
              "type": "address"
            },
            {
              "internalType": "uint256",
              "name": "certValue",
              "type": "uint256"
            },
            {
              "internalType": "uint256",
              "name": "certValidFrom",
              "type": "uint256"
            },
            {
              "internalType": "uint256",
              "name": "price",
              "type": "uint256"
            },
            {
              "internalType": "uint256",
              "name": "credits",
              "type": "uint256"
            },
            {
              "internalType": "uint256",
              "name": "pricePerCredit",
              "type": "uint256"
            },
            {
              "internalType": "uint256",
              "name": "serviceFee",
              "type": "uint256"
            },
            {
              "internalType": "uint256",
              "name": "resellerFee",
              "type": "uint256"
            },
            {
              "internalType": "uint256",
              "name": "transactionFee",
              "type": "uint256"
            },
            {
              "internalType": "string",
              "name": "tokenURI",
              "type": "string"
            },
            {
              "internalType": "address",
              "name": "erc20Contract",
              "type": "address"
            }
          ],
          "internalType": "struct Ticket",
          "name": "_t",
          "type": "tuple"
        }
      ],
      "stateMutability": "view",
      "type": "function"
    },
    {
      "inputs": [
        {
          "internalType": "address",
          "name": "erc20Contract",
          "type": "address"
        }
      ],
      "name": "getTotalTicketPoolSize",
      "outputs": [
        {
          "internalType": "uint256",
          "name": "",
          "type": "uint256"
        }
      ],
      "stateMutability": "view",
      "type": "function"
    },
    {
      "inputs": [
        {
          "internalType": "address",
          "name": "erc20Contract",
          "type": "address"
        }
      ],
      "name": "getTransactionPoolSize",
      "outputs": [
        {
          "internalType": "uint256",
          "name": "",
          "type": "uint256"
        }
      ],
      "stateMutability": "view",
      "type": "function"
    },
    {
      "inputs": [
        {
          "internalType": "address",
          "name": "white",
          "type": "address"
        }
      ],
      "name": "inWhitelist",
      "outputs": [
        {
          "internalType": "bool",
          "name": "",
          "type": "bool"
        }
      ],
      "stateMutability": "view",
      "type": "function"
    },
    {
      "inputs": [
        {
          "internalType": "address",
          "name": "_processor",
          "type": "address"
        }
      ],
      "name": "initProcessor",
      "outputs": [],
      "stateMutability": "nonpayable",
      "type": "function"
    },
    {
      "inputs": [
        {
          "internalType": "address",
          "name": "_owner",
          "type": "address"
        },
        {
          "internalType": "address",
          "name": "_treasury",
          "type": "address"
        },
        {
          "internalType": "address",
          "name": "_treasuryLib",
          "type": "address"
        }
      ],
      "name": "initialize",
      "outputs": [],
      "stateMutability": "nonpayable",
      "type": "function"
    },
    {
      "inputs": [
        {
          "internalType": "address",
          "name": "owner",
          "type": "address"
        },
        {
          "internalType": "address",
          "name": "operator",
          "type": "address"
        }
      ],
      "name": "isApprovedForAll",
      "outputs": [
        {
          "internalType": "bool",
          "name": "",
          "type": "bool"
        }
      ],
      "stateMutability": "view",
      "type": "function"
    },
    {
      "inputs": [
        {
          "internalType": "address",
          "name": "_wallet",
          "type": "address"
        }
      ],
      "name": "isServiceProviderWallet",
      "outputs": [
        {
          "internalType": "bool",
          "name": "",
          "type": "bool"
        }
      ],
      "stateMutability": "view",
      "type": "function"
    },
    {
      "inputs": [
        {
          "internalType": "uint256",
          "name": "ticketID",
          "type": "uint256"
        },
        {
          "internalType": "address",
          "name": "presenter",
          "type": "address"
        },
        {
          "internalType": "address",
          "name": "serviceProviderContract",
          "type": "address"
        },
        {
          "internalType": "uint256",
          "name": "reduceCreditsBy",
          "type": "uint256"
        }
      ],
      "name": "lockTicket",
      "outputs": [
        {
          "components": [
            {
              "internalType": "uint256",
              "name": "tokenID",
              "type": "uint256"
            },
            {
              "internalType": "address",
              "name": "serviceProvider",
              "type": "address"
            },
            {
              "internalType": "uint32",
              "name": "serviceDescriptor",
              "type": "uint32"
            },
            {
              "internalType": "address",
              "name": "issuedTo",
              "type": "address"
            },
            {
              "internalType": "uint256",
              "name": "certValue",
              "type": "uint256"
            },
            {
              "internalType": "uint256",
              "name": "certValidFrom",
              "type": "uint256"
            },
            {
              "internalType": "uint256",
              "name": "price",
              "type": "uint256"
            },
            {
              "internalType": "uint256",
              "name": "credits",
              "type": "uint256"
            },
            {
              "internalType": "uint256",
              "name": "pricePerCredit",
              "type": "uint256"
            },
            {
              "internalType": "uint256",
              "name": "serviceFee",
              "type": "uint256"
            },
            {
              "internalType": "uint256",
              "name": "resellerFee",
              "type": "uint256"
            },
            {
              "internalType": "uint256",
              "name": "transactionFee",
              "type": "uint256"
            },
            {
              "internalType": "string",
              "name": "tokenURI",
              "type": "string"
            },
            {
              "internalType": "address",
              "name": "erc20Contract",
              "type": "address"
            }
          ],
          "internalType": "struct Ticket",
          "name": "ticket",
          "type": "tuple"
        }
      ],
      "stateMutability": "nonpayable",
      "type": "function"
    },
    {
      "inputs": [
        {
          "internalType": "address",
          "name": "recipient",
          "type": "address"
        },
        {
          "components": [
            {
              "internalType": "uint256",
              "name": "tokenID",
              "type": "uint256"
            },
            {
              "internalType": "address",
              "name": "serviceProvider",
              "type": "address"
            },
            {
              "internalType": "uint32",
              "name": "serviceDescriptor",
              "type": "uint32"
            },
            {
              "internalType": "address",
              "name": "issuedTo",
              "type": "address"
            },
            {
              "internalType": "uint256",
              "name": "certValue",
              "type": "uint256"
            },
            {
              "internalType": "uint256",
              "name": "certValidFrom",
              "type": "uint256"
            },
            {
              "internalType": "uint256",
              "name": "price",
              "type": "uint256"
            },
            {
              "internalType": "uint256",
              "name": "credits",
              "type": "uint256"
            },
            {
              "internalType": "uint256",
              "name": "pricePerCredit",
              "type": "uint256"
            },
            {
              "internalType": "uint256",
              "name": "serviceFee",
              "type": "uint256"
            },
            {
              "internalType": "uint256",
              "name": "resellerFee",
              "type": "uint256"
            },
            {
              "internalType": "uint256",
              "name": "transactionFee",
              "type": "uint256"
            },
            {
              "internalType": "string",
              "name": "tokenURI",
              "type": "string"
            },
            {
              "internalType": "address",
              "name": "erc20Contract",
              "type": "address"
            }
          ],
          "internalType": "struct Ticket",
          "name": "ticket",
          "type": "tuple"
        }
      ],
      "name": "mintNFTicket",
      "outputs": [
        {
          "components": [
            {
              "internalType": "uint256",
              "name": "tokenID",
              "type": "uint256"
            },
            {
              "internalType": "address",
              "name": "serviceProvider",
              "type": "address"
            },
            {
              "internalType": "uint32",
              "name": "serviceDescriptor",
              "type": "uint32"
            },
            {
              "internalType": "address",
              "name": "issuedTo",
              "type": "address"
            },
            {
              "internalType": "uint256",
              "name": "certValue",
              "type": "uint256"
            },
            {
              "internalType": "uint256",
              "name": "certValidFrom",
              "type": "uint256"
            },
            {
              "internalType": "uint256",
              "name": "price",
              "type": "uint256"
            },
            {
              "internalType": "uint256",
              "name": "credits",
              "type": "uint256"
            },
            {
              "internalType": "uint256",
              "name": "pricePerCredit",
              "type": "uint256"
            },
            {
              "internalType": "uint256",
              "name": "serviceFee",
              "type": "uint256"
            },
            {
              "internalType": "uint256",
              "name": "resellerFee",
              "type": "uint256"
            },
            {
              "internalType": "uint256",
              "name": "transactionFee",
              "type": "uint256"
            },
            {
              "internalType": "string",
              "name": "tokenURI",
              "type": "string"
            },
            {
              "internalType": "address",
              "name": "erc20Contract",
              "type": "address"
            }
          ],
          "internalType": "struct Ticket",
          "name": "_ret",
          "type": "tuple"
        }
      ],
      "stateMutability": "payable",
      "type": "function"
    },
    {
      "inputs": [],
      "name": "name",
      "outputs": [
        {
          "internalType": "string",
          "name": "",
          "type": "string"
        }
      ],
      "stateMutability": "view",
      "type": "function"
    },
    {
      "inputs": [
        {
          "internalType": "uint256",
          "name": "tokenId",
          "type": "uint256"
        }
      ],
      "name": "ownerOf",
      "outputs": [
        {
          "internalType": "address",
          "name": "",
          "type": "address"
        }
      ],
      "stateMutability": "view",
      "type": "function"
    },
    {
      "inputs": [
        {
          "internalType": "uint256",
          "name": "ticketID",
          "type": "uint256"
        }
      ],
      "name": "ownerOfTicket",
      "outputs": [
        {
          "internalType": "address",
          "name": "_owner",
          "type": "address"
        }
      ],
      "stateMutability": "view",
      "type": "function"
    },
    {
      "inputs": [
        {
          "internalType": "uint256",
          "name": "ticketID",
          "type": "uint256"
        },
        {
          "internalType": "address",
          "name": "ticketHolder",
          "type": "address"
        },
        {
          "internalType": "address",
          "name": "serviceProvider",
          "type": "address"
        },
        {
          "internalType": "uint256",
          "name": "reduceCreditsBy",
          "type": "uint256"
        },
        {
          "internalType": "uint8",
          "name": "checkInMode",
          "type": "uint8"
        }
      ],
      "name": "presentTicket",
      "outputs": [
        {
          "components": [
            {
              "internalType": "uint256",
              "name": "tokenID",
              "type": "uint256"
            },
            {
              "internalType": "address",
              "name": "serviceProvider",
              "type": "address"
            },
            {
              "internalType": "uint32",
              "name": "serviceDescriptor",
              "type": "uint32"
            },
            {
              "internalType": "address",
              "name": "issuedTo",
              "type": "address"
            },
            {
              "internalType": "uint256",
              "name": "certValue",
              "type": "uint256"
            },
            {
              "internalType": "uint256",
              "name": "certValidFrom",
              "type": "uint256"
            },
            {
              "internalType": "uint256",
              "name": "price",
              "type": "uint256"
            },
            {
              "internalType": "uint256",
              "name": "credits",
              "type": "uint256"
            },
            {
              "internalType": "uint256",
              "name": "pricePerCredit",
              "type": "uint256"
            },
            {
              "internalType": "uint256",
              "name": "serviceFee",
              "type": "uint256"
            },
            {
              "internalType": "uint256",
              "name": "resellerFee",
              "type": "uint256"
            },
            {
              "internalType": "uint256",
              "name": "transactionFee",
              "type": "uint256"
            },
            {
              "internalType": "string",
              "name": "tokenURI",
              "type": "string"
            },
            {
              "internalType": "address",
              "name": "erc20Contract",
              "type": "address"
            }
          ],
          "internalType": "struct Ticket",
          "name": "ticket",
          "type": "tuple"
        }
      ],
      "stateMutability": "nonpayable",
      "type": "function"
    },
    {
      "inputs": [
        {
          "internalType": "uint256",
          "name": "ticketID",
          "type": "uint256"
        },
        {
          "internalType": "address",
          "name": "ticketHolder",
          "type": "address"
        },
        {
          "internalType": "address",
          "name": "serviceProvider",
          "type": "address"
        },
        {
          "internalType": "uint256",
          "name": "reduceCreditsBy",
          "type": "uint256"
        }
      ],
      "name": "presentTicket",
      "outputs": [
        {
          "components": [
            {
              "internalType": "uint256",
              "name": "tokenID",
              "type": "uint256"
            },
            {
              "internalType": "address",
              "name": "serviceProvider",
              "type": "address"
            },
            {
              "internalType": "uint32",
              "name": "serviceDescriptor",
              "type": "uint32"
            },
            {
              "internalType": "address",
              "name": "issuedTo",
              "type": "address"
            },
            {
              "internalType": "uint256",
              "name": "certValue",
              "type": "uint256"
            },
            {
              "internalType": "uint256",
              "name": "certValidFrom",
              "type": "uint256"
            },
            {
              "internalType": "uint256",
              "name": "price",
              "type": "uint256"
            },
            {
              "internalType": "uint256",
              "name": "credits",
              "type": "uint256"
            },
            {
              "internalType": "uint256",
              "name": "pricePerCredit",
              "type": "uint256"
            },
            {
              "internalType": "uint256",
              "name": "serviceFee",
              "type": "uint256"
            },
            {
              "internalType": "uint256",
              "name": "resellerFee",
              "type": "uint256"
            },
            {
              "internalType": "uint256",
              "name": "transactionFee",
              "type": "uint256"
            },
            {
              "internalType": "string",
              "name": "tokenURI",
              "type": "string"
            },
            {
              "internalType": "address",
              "name": "erc20Contract",
              "type": "address"
            }
          ],
          "internalType": "struct Ticket",
          "name": "",
          "type": "tuple"
        }
      ],
      "stateMutability": "nonpayable",
      "type": "function"
    },
    {
      "inputs": [
        {
          "internalType": "uint256",
          "name": "ticketID",
          "type": "uint256"
        },
        {
          "internalType": "address",
          "name": "ticketReceiver",
          "type": "address"
        },
        {
          "internalType": "address",
          "name": "serviceProviderContract",
          "type": "address"
        },
        {
          "internalType": "uint256",
          "name": "reduceCreditsBy",
          "type": "uint256"
        }
      ],
      "name": "releaseTicket",
      "outputs": [
        {
          "components": [
            {
              "internalType": "uint256",
              "name": "tokenID",
              "type": "uint256"
            },
            {
              "internalType": "address",
              "name": "serviceProvider",
              "type": "address"
            },
            {
              "internalType": "uint32",
              "name": "serviceDescriptor",
              "type": "uint32"
            },
            {
              "internalType": "address",
              "name": "issuedTo",
              "type": "address"
            },
            {
              "internalType": "uint256",
              "name": "certValue",
              "type": "uint256"
            },
            {
              "internalType": "uint256",
              "name": "certValidFrom",
              "type": "uint256"
            },
            {
              "internalType": "uint256",
              "name": "price",
              "type": "uint256"
            },
            {
              "internalType": "uint256",
              "name": "credits",
              "type": "uint256"
            },
            {
              "internalType": "uint256",
              "name": "pricePerCredit",
              "type": "uint256"
            },
            {
              "internalType": "uint256",
              "name": "serviceFee",
              "type": "uint256"
            },
            {
              "internalType": "uint256",
              "name": "resellerFee",
              "type": "uint256"
            },
            {
              "internalType": "uint256",
              "name": "transactionFee",
              "type": "uint256"
            },
            {
              "internalType": "string",
              "name": "tokenURI",
              "type": "string"
            },
            {
              "internalType": "address",
              "name": "erc20Contract",
              "type": "address"
            }
          ],
          "internalType": "struct Ticket",
          "name": "ticket",
          "type": "tuple"
        },
        {
          "internalType": "uint256",
          "name": "providerRevenue",
          "type": "uint256"
        }
      ],
      "stateMutability": "nonpayable",
      "type": "function"
    },
    {
      "inputs": [
        {
          "internalType": "uint256",
          "name": "ticketID",
          "type": "uint256"
        },
        {
          "internalType": "address",
          "name": "ticketReceiver",
          "type": "address"
        },
        {
          "internalType": "address",
          "name": "serviceProviderContract",
          "type": "address"
        },
        {
          "internalType": "uint256",
          "name": "totalServiceCredits",
          "type": "uint256"
        },
        {
          "internalType": "uint32[]",
          "name": "serviceDescriptorList",
          "type": "uint32[]"
        },
        {
          "internalType": "uint256[]",
          "name": "creditsList",
          "type": "uint256[]"
        }
      ],
      "name": "releaseTicket",
      "outputs": [
        {
          "components": [
            {
              "internalType": "uint256",
              "name": "tokenID",
              "type": "uint256"
            },
            {
              "internalType": "address",
              "name": "serviceProvider",
              "type": "address"
            },
            {
              "internalType": "uint32",
              "name": "serviceDescriptor",
              "type": "uint32"
            },
            {
              "internalType": "address",
              "name": "issuedTo",
              "type": "address"
            },
            {
              "internalType": "uint256",
              "name": "certValue",
              "type": "uint256"
            },
            {
              "internalType": "uint256",
              "name": "certValidFrom",
              "type": "uint256"
            },
            {
              "internalType": "uint256",
              "name": "price",
              "type": "uint256"
            },
            {
              "internalType": "uint256",
              "name": "credits",
              "type": "uint256"
            },
            {
              "internalType": "uint256",
              "name": "pricePerCredit",
              "type": "uint256"
            },
            {
              "internalType": "uint256",
              "name": "serviceFee",
              "type": "uint256"
            },
            {
              "internalType": "uint256",
              "name": "resellerFee",
              "type": "uint256"
            },
            {
              "internalType": "uint256",
              "name": "transactionFee",
              "type": "uint256"
            },
            {
              "internalType": "string",
              "name": "tokenURI",
              "type": "string"
            },
            {
              "internalType": "address",
              "name": "erc20Contract",
              "type": "address"
            }
          ],
          "internalType": "struct Ticket",
          "name": "ticket",
          "type": "tuple"
        },
        {
          "internalType": "uint256[2]",
          "name": "revenueList",
          "type": "uint256[2]"
        }
      ],
      "stateMutability": "nonpayable",
      "type": "function"
    },
    {
      "inputs": [
        {
          "internalType": "address",
          "name": "_address",
          "type": "address"
        }
      ],
      "name": "removeWhitelist",
      "outputs": [],
      "stateMutability": "nonpayable",
      "type": "function"
    },
    {
      "inputs": [
        {
          "internalType": "address",
          "name": "from",
          "type": "address"
        },
        {
          "internalType": "address",
          "name": "to",
          "type": "address"
        },
        {
          "internalType": "uint256",
          "name": "tokenId",
          "type": "uint256"
        }
      ],
      "name": "safeTransferFrom",
      "outputs": [],
      "stateMutability": "nonpayable",
      "type": "function"
    },
    {
      "inputs": [
        {
          "internalType": "address",
          "name": "from",
          "type": "address"
        },
        {
          "internalType": "address",
          "name": "to",
          "type": "address"
        },
        {
          "internalType": "uint256",
          "name": "tokenId",
          "type": "uint256"
        },
        {
          "internalType": "bytes",
          "name": "data",
          "type": "bytes"
        }
      ],
      "name": "safeTransferFrom",
      "outputs": [],
      "stateMutability": "nonpayable",
      "type": "function"
    },
    {
      "inputs": [
        {
          "internalType": "address",
          "name": "operator",
          "type": "address"
        },
        {
          "internalType": "bool",
          "name": "approved",
          "type": "bool"
        }
      ],
      "name": "setApprovalForAll",
      "outputs": [],
      "stateMutability": "nonpayable",
      "type": "function"
    },
    {
      "inputs": [
        {
          "internalType": "address",
          "name": "mtp",
          "type": "address"
        }
      ],
      "name": "setMTP",
      "outputs": [],
      "stateMutability": "nonpayable",
      "type": "function"
    },
    {
      "inputs": [
        {
          "internalType": "uint256",
          "name": "ticketID",
          "type": "uint256"
        },
        {
          "components": [
            {
              "internalType": "uint256",
              "name": "tokenID",
              "type": "uint256"
            },
            {
              "internalType": "address",
              "name": "serviceProvider",
              "type": "address"
            },
            {
              "internalType": "uint32",
              "name": "serviceDescriptor",
              "type": "uint32"
            },
            {
              "internalType": "address",
              "name": "issuedTo",
              "type": "address"
            },
            {
              "internalType": "uint256",
              "name": "certValue",
              "type": "uint256"
            },
            {
              "internalType": "uint256",
              "name": "certValidFrom",
              "type": "uint256"
            },
            {
              "internalType": "uint256",
              "name": "price",
              "type": "uint256"
            },
            {
              "internalType": "uint256",
              "name": "credits",
              "type": "uint256"
            },
            {
              "internalType": "uint256",
              "name": "pricePerCredit",
              "type": "uint256"
            },
            {
              "internalType": "uint256",
              "name": "serviceFee",
              "type": "uint256"
            },
            {
              "internalType": "uint256",
              "name": "resellerFee",
              "type": "uint256"
            },
            {
              "internalType": "uint256",
              "name": "transactionFee",
              "type": "uint256"
            },
            {
              "internalType": "string",
              "name": "tokenURI",
              "type": "string"
            },
            {
              "internalType": "address",
              "name": "erc20Contract",
              "type": "address"
            }
          ],
          "internalType": "struct Ticket",
          "name": "ticket",
          "type": "tuple"
        }
      ],
      "name": "setTicketData",
      "outputs": [],
      "stateMutability": "nonpayable",
      "type": "function"
    },
    {
      "inputs": [
        {
          "internalType": "bytes4",
          "name": "interfaceId",
          "type": "bytes4"
        }
      ],
      "name": "supportsInterface",
      "outputs": [
        {
          "internalType": "bool",
          "name": "",
          "type": "bool"
        }
      ],
      "stateMutability": "view",
      "type": "function"
    },
    {
      "inputs": [],
      "name": "symbol",
      "outputs": [
        {
          "internalType": "string",
          "name": "",
          "type": "string"
        }
      ],
      "stateMutability": "view",
      "type": "function"
    },
    {
      "inputs": [
        {
          "internalType": "uint256",
          "name": "tokenId",
          "type": "uint256"
        }
      ],
      "name": "tokenURI",
      "outputs": [
        {
          "internalType": "string",
          "name": "",
          "type": "string"
        }
      ],
      "stateMutability": "view",
      "type": "function"
    },
    {
      "inputs": [
        {
          "components": [
            {
              "internalType": "uint32",
              "name": "orderID",
              "type": "uint32"
            },
            {
              "internalType": "uint256",
              "name": "ticketID",
              "type": "uint256"
            },
            {
              "internalType": "address[]",
              "name": "erc20TokenList",
              "type": "address[]"
            },
            {
              "internalType": "uint256[]",
              "name": "erc20AmountList",
              "type": "uint256[]"
            },
            {
              "internalType": "uint256",
              "name": "creditsAdd",
              "type": "uint256"
            }
          ],
          "internalType": "struct TopUpPayload",
          "name": "payload",
          "type": "tuple"
        },
        {
          "internalType": "bytes",
          "name": "signatureFromMTP",
          "type": "bytes"
        }
      ],
      "name": "topUpTicket",
      "outputs": [
        {
          "internalType": "uint256",
          "name": "increaseCreditsBy",
          "type": "uint256"
        },
        {
          "internalType": "uint256",
          "name": "increaseBalanceBy",
          "type": "uint256"
        }
      ],
      "stateMutability": "nonpayable",
      "type": "function"
    },
    {
      "inputs": [
        {
          "components": [
            {
              "internalType": "uint32",
              "name": "orderID",
              "type": "uint32"
            },
            {
              "internalType": "uint256",
              "name": "ticketID",
              "type": "uint256"
            },
            {
              "internalType": "address[]",
              "name": "erc20TokenList",
              "type": "address[]"
            },
            {
              "internalType": "uint256[]",
              "name": "erc20AmountList",
              "type": "uint256[]"
            },
            {
              "internalType": "uint256",
              "name": "creditsAdd",
              "type": "uint256"
            }
          ],
          "internalType": "struct TopUpPayload",
          "name": "payload",
          "type": "tuple"
        }
      ],
      "name": "topUpTicket",
      "outputs": [
        {
          "internalType": "uint256",
          "name": "increaseCreditsBy",
          "type": "uint256"
        },
        {
          "internalType": "uint256",
          "name": "increaseBalanceBy",
          "type": "uint256"
        }
      ],
      "stateMutability": "nonpayable",
      "type": "function"
    },
    {
      "inputs": [
        {
          "internalType": "uint256",
          "name": "ticketID",
          "type": "uint256"
        },
        {
          "internalType": "uint256",
          "name": "creditsAdded",
          "type": "uint256"
        },
        {
          "internalType": "address",
          "name": "erc20Contract",
          "type": "address"
        },
        {
          "internalType": "uint256",
          "name": "numberERC20Tokens",
          "type": "uint256"
        }
      ],
      "name": "topUpTicketNoPayload",
      "outputs": [
        {
          "internalType": "uint256",
          "name": "creditsAffordable",
          "type": "uint256"
        },
        {
          "internalType": "uint256",
          "name": "chargedERC20",
          "type": "uint256"
        }
      ],
      "stateMutability": "nonpayable",
      "type": "function"
    },
    {
      "inputs": [
        {
          "internalType": "address",
          "name": "erc20Contract",
          "type": "address"
        },
        {
          "internalType": "address",
          "name": "from",
          "type": "address"
        },
        {
          "internalType": "address",
          "name": "to",
          "type": "address"
        },
        {
          "internalType": "uint256",
          "name": "value",
          "type": "uint256"
        }
      ],
      "name": "transferERC20From",
      "outputs": [],
      "stateMutability": "nonpayable",
      "type": "function"
    },
    {
      "inputs": [
        {
          "internalType": "address",
          "name": "from",
          "type": "address"
        },
        {
          "internalType": "address",
          "name": "to",
          "type": "address"
        },
        {
          "internalType": "uint256",
          "name": "tokenId",
          "type": "uint256"
        }
      ],
      "name": "transferFrom",
      "outputs": [],
      "stateMutability": "nonpayable",
      "type": "function"
    },
    {
      "inputs": [
        {
          "internalType": "uint256",
          "name": "ticketID",
          "type": "uint256"
        },
        {
          "internalType": "uint32",
          "name": "serviceDescriptor",
          "type": "uint32"
        }
      ],
      "name": "updateServiceType",
      "outputs": [
        {
          "internalType": "uint256",
          "name": "_sD",
          "type": "uint256"
        }
      ],
      "stateMutability": "nonpayable",
      "type": "function"
    },
    {
      "inputs": [
        {
          "internalType": "address",
          "name": "accountOwner",
          "type": "address"
        },
        {
          "internalType": "address",
          "name": "erc20Contract",
          "type": "address"
        },
        {
          "internalType": "uint256",
          "name": "amountERC20Tokens",
          "type": "uint256"
        },
        {
          "internalType": "address",
          "name": "sendTo",
          "type": "address"
        }
      ],
      "name": "withDrawERC20",
      "outputs": [
        {
          "internalType": "address",
          "name": "",
          "type": "address"
        },
        {
          "internalType": "uint256",
          "name": "",
          "type": "uint256"
        }
      ],
      "stateMutability": "nonpayable",
      "type": "function"
    },
    {
      "inputs": [
        {
          "internalType": "uint256",
          "name": "ticketID",
          "type": "uint256"
        },
        {
          "internalType": "uint256",
          "name": "amountERC20Tokens",
          "type": "uint256"
        },
        {
          "internalType": "address",
          "name": "sendTo",
          "type": "address"
        }
      ],
      "name": "withDrawERC20",
      "outputs": [
        {
          "components": [
            {
              "internalType": "uint256",
              "name": "tokenID",
              "type": "uint256"
            },
            {
              "internalType": "address",
              "name": "serviceProvider",
              "type": "address"
            },
            {
              "internalType": "uint32",
              "name": "serviceDescriptor",
              "type": "uint32"
            },
            {
              "internalType": "address",
              "name": "issuedTo",
              "type": "address"
            },
            {
              "internalType": "uint256",
              "name": "certValue",
              "type": "uint256"
            },
            {
              "internalType": "uint256",
              "name": "certValidFrom",
              "type": "uint256"
            },
            {
              "internalType": "uint256",
              "name": "price",
              "type": "uint256"
            },
            {
              "internalType": "uint256",
              "name": "credits",
              "type": "uint256"
            },
            {
              "internalType": "uint256",
              "name": "pricePerCredit",
              "type": "uint256"
            },
            {
              "internalType": "uint256",
              "name": "serviceFee",
              "type": "uint256"
            },
            {
              "internalType": "uint256",
              "name": "resellerFee",
              "type": "uint256"
            },
            {
              "internalType": "uint256",
              "name": "transactionFee",
              "type": "uint256"
            },
            {
              "internalType": "string",
              "name": "tokenURI",
              "type": "string"
            },
            {
              "internalType": "address",
              "name": "erc20Contract",
              "type": "address"
            }
          ],
          "internalType": "struct Ticket",
          "name": "ticket",
          "type": "tuple"
        },
        {
          "internalType": "uint256",
          "name": "",
          "type": "uint256"
        }
      ],
      "stateMutability": "nonpayable",
      "type": "function"
    },
    {
      "inputs": [
        {
          "internalType": "uint256",
          "name": "ticketID",
          "type": "uint256"
        },
        {
          "internalType": "uint256",
          "name": "reduceCreditsBy",
          "type": "uint256"
        }
      ],
      "name": "withDrawERC20ByCredits",
      "outputs": [
        {
          "components": [
            {
              "internalType": "uint256",
              "name": "tokenID",
              "type": "uint256"
            },
            {
              "internalType": "address",
              "name": "serviceProvider",
              "type": "address"
            },
            {
              "internalType": "uint32",
              "name": "serviceDescriptor",
              "type": "uint32"
            },
            {
              "internalType": "address",
              "name": "issuedTo",
              "type": "address"
            },
            {
              "internalType": "uint256",
              "name": "certValue",
              "type": "uint256"
            },
            {
              "internalType": "uint256",
              "name": "certValidFrom",
              "type": "uint256"
            },
            {
              "internalType": "uint256",
              "name": "price",
              "type": "uint256"
            },
            {
              "internalType": "uint256",
              "name": "credits",
              "type": "uint256"
            },
            {
              "internalType": "uint256",
              "name": "pricePerCredit",
              "type": "uint256"
            },
            {
              "internalType": "uint256",
              "name": "serviceFee",
              "type": "uint256"
            },
            {
              "internalType": "uint256",
              "name": "resellerFee",
              "type": "uint256"
            },
            {
              "internalType": "uint256",
              "name": "transactionFee",
              "type": "uint256"
            },
            {
              "internalType": "string",
              "name": "tokenURI",
              "type": "string"
            },
            {
              "internalType": "address",
              "name": "erc20Contract",
              "type": "address"
            }
          ],
          "internalType": "struct Ticket",
          "name": "",
          "type": "tuple"
        },
        {
          "internalType": "address",
          "name": "erc20Contract",
          "type": "address"
        },
        {
          "internalType": "uint256",
          "name": "withDrawnAmount",
          "type": "uint256"
        }
      ],
      "stateMutability": "nonpayable",
      "type": "function"
    }
  ],
  "bytecode": "0x608060405234801561001057600080fd5b50615e4e80620000216000396000f3fe6080604052600436106102725760003560e01c80638831d11b1161014f578063d7614b4e116100c1578063ebafa4651161007a578063ebafa4651461080c578063ee32a8901461082c578063f0162c681461085a578063f212a86114610889578063f80f5dd5146108a9578063f851ba13146108c957600080fd5b8063d7614b4e14610723578063d9895e6a14610743578063e2aafa2114610763578063e73c1a4114610783578063e9461e4d146107a3578063e985e9c5146107c357600080fd5b8063b1beaa4b11610113578063b1beaa4b14610663578063b88d4fde14610683578063c0860c2c146106a3578063c0c53b8b146106c3578063c87b56dd146106e3578063cf85ccac1461070357600080fd5b80638831d11b146105ce5780638e09a808146105ee57806395d89b411461060e57806398ed32f714610623578063a22cb4651461064357600080fd5b80633192be5d116101e85780635968e00a116101ac5780635968e00a146104e45780636352211e14610512578063645f16761461053257806370a082311461055257806375d0b54c1461057257806378c8cda71461059257600080fd5b80633192be5d1461042757806335c012b5146104475780633e4d4cac1461048457806342842e0e146104a45780634660feb9146104c457600080fd5b8063095ea7b31161023a578063095ea7b31461034b5780631f1a51c81461036b5780632262057e1461039957806323b872dd146103c7578063249206af146103e7578063274861681461040757600080fd5b806301ffc9a71461027757806303027d2e146102ad57806306fdde03146102da57806307940ee7146102fc578063081812fc1461031e575b600080fd5b34801561028357600080fd5b506102976102923660046143bd565b6108e9565b6040516102a49190615619565b60405180910390f35b3480156102b957600080fd5b506102cd6102c8366004614641565b61093b565b6040516102a49190615a56565b3480156102e657600080fd5b506102ef6109c3565b6040516102a49190615635565b34801561030857600080fd5b5061031c610317366004614175565b610a55565b005b34801561032a57600080fd5b5061033e6103393660046145ff565b610a67565b6040516102a491906154fe565b34801561035757600080fd5b5061031c610366366004614369565b610a8e565b34801561037757600080fd5b5061038b610386366004614696565b610b1d565b6040516102a4929190615996565b3480156103a557600080fd5b506103b96103b43660046146bb565b610cce565b6040516102a4929190615976565b3480156103d357600080fd5b5061031c6103e23660046141d9565b61113d565b3480156103f357600080fd5b506102cd6104023660046140a6565b61116e565b61041a61041536600461431c565b6111ef565b6040516102a491906158c6565b34801561043357600080fd5b5061033e6104423660046145ff565b61137d565b34801561045357600080fd5b5061031c6104623660046140a6565b60d280546001600160a01b0319166001600160a01b0392909216919091179055565b34801561049057600080fd5b5061031c61049f3660046147fb565b6113f3565b3480156104b057600080fd5b5061031c6104bf3660046141d9565b61158c565b3480156104d057600080fd5b5061041a6104df366004614696565b6115a7565b3480156104f057600080fd5b506105046104ff36600461458b565b6115c8565b6040516102a4929190615a80565b34801561051e57600080fd5b5061033e61052d3660046145ff565b61195f565b34801561053e57600080fd5b5061050461054d366004614551565b611994565b34801561055e57600080fd5b506102cd61056d3660046140a6565b611b45565b34801561057e57600080fd5b5061031c61058d3660046140a6565b611b89565b34801561059e57600080fd5b5061031c6105ad3660046140a6565b6001600160a01b0316600090815260ca60205260409020805460ff19169055565b3480156105da57600080fd5b506102cd6105e93660046145ff565b611caf565b3480156105fa57600080fd5b50610504610609366004614874565b611ce0565b34801561061a57600080fd5b506102ef611e99565b34801561062f57600080fd5b506102cd61063e3660046148aa565b611ea8565b34801561064f57600080fd5b5061031c61065e3660046142e9565b611ff3565b34801561066f57600080fd5b5061029761067e3660046140a6565b611ffe565b34801561068f57600080fd5b5061031c61069e366004614277565b612095565b3480156106af57600080fd5b5061033e6106be3660046145ff565b6120c7565b3480156106cf57600080fd5b5061031c6106de366004614125565b61216a565b3480156106ef57600080fd5b506102ef6106fe3660046145ff565b6122d9565b34801561070f57600080fd5b5061041a61071e366004614783565b6123e2565b34801561072f57600080fd5b506102cd61073e366004614641565b61258b565b34801561074f57600080fd5b5061041a61075e3660046145ff565b6125a2565b34801561076f57600080fd5b5061029761077e3660046140a6565b61262e565b34801561078f57600080fd5b5061041a61079e366004614696565b6126bb565b3480156107af57600080fd5b506102cd6107be3660046140e8565b6126d1565b3480156107cf57600080fd5b506102976107de3660046140e8565b6001600160a01b039182166000908152606a6020908152604080832093909416825291909152205460ff1690565b34801561081857600080fd5b506102cd6108273660046140a6565b612704565b34801561083857600080fd5b5061084c61084736600461421f565b612735565b6040516102a49291906155e3565b34801561086657600080fd5b5061087a61087536600461481d565b612988565b6040516102a493929190615936565b34801561089557600080fd5b5061038b6108a436600461483f565b612c7f565b3480156108b557600080fd5b5061031c6108c43660046140a6565b612e5d565b3480156108d557600080fd5b506102cd6108e43660046140e8565b612e68565b60006001600160e01b031982166380ac58cd60e01b148061091a57506001600160e01b03198216635b5e139f60e01b145b8061093557506301ffc9a760e01b6001600160e01b03198316145b92915050565b60d054604051638831d11b60e01b81526000916001600160a01b031690638831d11b9061096c908690600401615a56565b60206040518083038186803b15801561098457600080fd5b505afa158015610998573d6000803e3d6000fd5b505050506040513d601f19601f820116820180604052508101906109bc9190614620565b9392505050565b6060606580546109d290615c91565b80601f01602080910402602001604051908101604052809291908181526020018280546109fe90615c91565b8015610a4b5780601f10610a2057610100808354040283529160200191610a4b565b820191906000526020600020905b815481529060010190602001808311610a2e57829003601f168201915b5050505050905090565b610a6184848484612e9b565b50505050565b6000610a7282612f83565b506000908152606960205260409020546001600160a01b031690565b6000610a998261195f565b9050806001600160a01b0316836001600160a01b03161415610ad65760405162461bcd60e51b8152600401610acd90615810565b60405180910390fd5b336001600160a01b0382161480610af25750610af281336107de565b610b0e5760405162461bcd60e51b8152600401610acd90615840565b610b188383612fb7565b505050565b610b25613a66565b6000610b30866125a2565b60d0546101a082015160405163e9461e4d60e01b81529294506000926001600160a01b039092169163e9461e4d91610b6d9189919060040161550c565b60206040518083038186803b158015610b8557600080fd5b505afa158015610b99573d6000803e3d6000fd5b505050506040513d601f19601f82011682018060405250810190610bbd9190614620565b9050610bcd8787878760016123e2565b60d0546101a082015160405163e9461e4d60e01b81529295506000926001600160a01b039092169163e9461e4d91610c0a918a919060040161550c565b60206040518083038186803b158015610c2257600080fd5b505afa158015610c36573d6000803e3d6000fd5b505050506040513d601f19601f82011682018060405250810190610c5a9190614620565b905081811015610c7c5760405162461bcd60e51b8152600401610acd90615850565b610100840151610c8d908690613025565b610c978284613031565b14610cb45760405162461bcd60e51b8152600401610acd90615780565b83610cbf8284613031565b93509350505094509492505050565b610cd6613a66565b610cde613af6565b600080610cea8c6125a2565b935060006104008560400151610d009190615d0a565b9050878614610d215760405162461bcd60e51b8152600401610acd90615690565b89610d6788886001818110610d3857610d38615d6a565b9050602002013589896000818110610d5257610d52615d6a565b9050602002013561303d90919063ffffffff16565b14610d845760405162461bcd60e51b8152600401610acd90615680565b8063ffffffff1689896000818110610d9e57610d9e615d6a565b9050602002016020810190610db391906148dd565b63ffffffff1614610dd65760405162461bcd60e51b8152600401610acd906157c0565b610dfb8d8d8d8a8a6000818110610def57610def615d6a565b90506020020135610b1d565b85529450610e2f87876001818110610e1557610e15615d6a565b9050602002013588886000818110610d5257610d52615d6a565b92506000610e6488886001818110610e4957610e49615d6a565b9050602002013587610100015161302590919063ffffffff16565b60d0546101a0880151604051630adc7b8360e21b81529293506000926001600160a01b0390921691632b71ee0c91610ea19188919060040161550c565b60206040518083038186803b158015610eb957600080fd5b505afa158015610ecd573d6000803e3d6000fd5b505050506040513d601f19601f82011682018060405250810190610ef19190614620565b60d0549091506001600160a01b031663d8e7eee68c8c6001818110610f1857610f18615d6a565b9050602002016020810190610f2d91906148dd565b610f5e8c8c6001818110610f4357610f43615d6a565b905060200201358b610100015161302590919063ffffffff16565b8a6101a001516040518463ffffffff1660e01b8152600401610f8293929190615ac4565b6040805180830381600087803b158015610f9b57600080fd5b505af1158015610faf573d6000803e3d6000fd5b505050506040513d601f19601f82011682018060405250810190610fd39190614663565b602088019190915260d054604051637888dc0f60e01b81529195506001600160a01b031690637888dc0f9061100e908a908690600401615996565b606060405180830381600087803b15801561102857600080fd5b505af115801561103c573d6000803e3d6000fd5b505050506040513d601f19601f8201168201806040525081019061106091906143ff565b508888600181811061107457611074615d6a565b905060200201358760e00181815161108c9190615c26565b9052506110998f886113f3565b60208601516110a89082613031565b8660016020020181815250506110ed6040518060600160405280603b8152602001615dde603b91396101008901516110e1908890613025565b885160208a0151613049565b6101008701516110fe908690613025565b6020870151875161110e9161303d565b1461112b5760405162461bcd60e51b8152600401610acd906157b0565b50505050509850989650505050505050565b6111473382613092565b6111635760405162461bcd60e51b8152600401610acd906156a0565b610b18838383613110565b60d05460405163249206af60e01b81526000916001600160a01b03169063249206af9061119f9085906004016154fe565b60206040518083038186803b1580156111b757600080fd5b505afa1580156111cb573d6000803e3d6000fd5b505050506040513d601f19601f820116820180604052508101906109359190614620565b6111f7613a66565b61121b60405180606001604052806000815260200160008152602001600081525090565b60d254600160a01b900463ffffffff1680845283925061123c908590613245565b61124f826000015183610180015161334e565b60cf5460c083015160405163fab7f92160e01b81526001600160a01b039092169163fab7f9219161128591869190600401615996565b600060405180830381600087803b15801561129f57600080fd5b505af11580156112b3573d6000803e3d6000fd5b505050506040513d6000823e601f3d908101601f191682016040526112db91908101906144b9565b815191935091506112ec90836113f3565b81600001517f727e1f77b47393cee1c9342052bda3f1058368b48bfac1d1c7ca2166fea57ac6348360000151846020015185604001516040516113329493929190615aa9565b60405180910390a260d28054600160a01b900463ffffffff1690601461135783615ce4565b91906101000a81548163ffffffff021916908363ffffffff160217905550505092915050565b60405163020604bf60e21b8152600090309063081812fc906113a3908590600401615a56565b60206040518083038186803b1580156113bb57600080fd5b505afa1580156113cf573d6000803e3d6000fd5b505050506040513d601f19601f8201168201806040525081019061093591906140c7565b60d0546040808301519051636cbb2c1f60e01b81526001600160a01b0390921691636cbb2c1f91611429913391906004016155fe565b60206040518083038186803b15801561144157600080fd5b505afa158015611455573d6000803e3d6000fd5b505050506040513d601f19601f82011682018060405250810190611479919061439c565b80611508575060d05460208201516040516001626de65b60e01b031981526001600160a01b039092169163ff9219a5916114b89133919060040161550c565b60206040518083038186803b1580156114d057600080fd5b505afa1580156114e4573d6000803e3d6000fd5b505050506040513d601f19601f82011682018060405250810190611508919061439c565b6115245760405162461bcd60e51b8152600401610acd90615820565b60d054604051630f93532b60e21b81526001600160a01b0390911690633e4d4cac906115569085908590600401615a72565b600060405180830381600087803b15801561157057600080fd5b505af1158015611584573d6000803e3d6000fd5b505050505050565b610b1883838360405180602001604052806000815250612095565b6115af613a66565b6115bd8585858560006123e2565b90505b949350505050565b60008060006115d5613a66565b6115e287602001356125a2565b6040516314bb2c1560e21b815290915073__$022f8deac3c8b34231be5f5ddee1e6fe44$__906352ecb0549061161f9060c99085906004016158ac565b60206040518083038186803b15801561163757600080fd5b505af415801561164b573d6000803e3d6000fd5b505050506040513d601f19601f8201168201806040525081019061166f919061439c565b1561168c5760405162461bcd60e51b8152600401610acd90615710565b60208088018035600090815260cd90925260409091205463ffffffff16906116b490896148dd565b63ffffffff16116116d75760405162461bcd60e51b8152600401610acd906157e0565b6116e460208801886148dd565b602088810135600090815260cd9091526040808220805463ffffffff191663ffffffff949094169390931790925560d154915163adc1451b60e01b815290916001600160a01b03169063adc1451b90611745908b908b908b90600401615a30565b602060405180830381600087803b15801561175f57600080fd5b505af1158015611773573d6000803e3d6000fd5b505050506040513d601f19601f8201168201806040525081019061179791906140c7565b60d2549091506001600160a01b038083169116146117c75760405162461bcd60e51b8152600401610acd90615700565b60cf546001600160a01b031663866234f08360808b01356117eb60408d018d615ad2565b60008181106117fc576117fc615d6a565b905060200201602081019061181191906140a6565b61181e60608e018e615ad2565b600081811061182f5761182f615d6a565b905060200201356040518563ffffffff1660e01b815260040161185594939291906159e3565b606060405180830381600087803b15801561186f57600080fd5b505af1158015611883573d6000803e3d6000fd5b505050506040513d601f19601f820116820180604052508101906118a7919061491f565b909650945092506118bb6040890189615ad2565b60008181106118cc576118cc615d6a565b90506020020160208101906118e191906140a6565b6001600160a01b031660208901357fe3458fab7b57a1243473a2d62ff671aea7effcd1b435bc09fcde839c5775920260808b013561192260608d018d615ad2565b600081811061193357611933615d6a565b90506020020135898960405161194c9493929190615aa9565b60405180910390a3505050935093915050565b6000818152606760205260408120546001600160a01b0316806109355760405162461bcd60e51b8152600401610acd906157f0565b60208082018035600090815260cd9092526040822054829163ffffffff909116906119bf90856148dd565b63ffffffff16116119e25760405162461bcd60e51b8152600401610acd906157e0565b6119ef60208401846148dd565b602084810135600081815260cd90925260408220805463ffffffff191663ffffffff949094169390931790925590611a26906125a2565b6040516314bb2c1560e21b815290915073__$022f8deac3c8b34231be5f5ddee1e6fe44$__906352ecb05490611a639060c99085906004016158ac565b60206040518083038186803b158015611a7b57600080fd5b505af4158015611a8f573d6000803e3d6000fd5b505050506040513d601f19601f82011682018060405250810190611ab3919061439c565b15611ad05760405162461bcd60e51b8152600401610acd90615710565b611b3a60208501356080860135611aea6040880188615ad2565b6000818110611afb57611afb615d6a565b9050602002016020810190611b1091906140a6565b611b1d6060890189615ad2565b6000818110611b2e57611b2e615d6a565b90506020020135611ce0565b909590945092505050565b60006001600160a01b038216611b6d5760405162461bcd60e51b8152600401610acd90615760565b506001600160a01b031660009081526068602052604090205490565b3360d180546001600160a01b0319166001600160a01b03841690811790915560405163a22cb46560e01b8152309163a22cb46591611bcd91906001906004016155c8565b600060405180830381600087803b158015611be757600080fd5b505af1158015611bfb573d6000803e3d6000fd5b505060405163e985e9c560e01b815230925063e985e9c59150611c24908390869060040161550c565b60206040518083038186803b158015611c3c57600080fd5b505afa158015611c50573d6000803e3d6000fd5b505050506040513d601f19601f82011682018060405250810190611c74919061439c565b611c905760405162461bcd60e51b8152600401610acd90615720565b60d154611ca89060c9906001600160a01b03166133a1565b5050565b50565b60d054604051638831d11b60e01b81526000916001600160a01b031690638831d11b9061119f908590600401615a56565b600080600080611cef886125a2565b6040516314bb2c1560e21b815290915073__$022f8deac3c8b34231be5f5ddee1e6fe44$__906352ecb05490611d2c9060c99085906004016158ac565b60206040518083038186803b158015611d4457600080fd5b505af4158015611d58573d6000803e3d6000fd5b505050506040513d601f19601f82011682018060405250810190611d7c919061439c565b15611d995760405162461bcd60e51b8152600401610acd90615710565b60cf54611db390879033906001600160a01b031688612e9b565b60cf54604051630866234f60e41b81526001600160a01b039091169063866234f090611de99084908b908b908b906004016159e3565b606060405180830381600087803b158015611e0357600080fd5b505af1158015611e17573d6000803e3d6000fd5b505050506040513d601f19601f82011682018060405250810190611e3b919061491f565b60405191965094509092506001600160a01b0387169089907fe3458fab7b57a1243473a2d62ff671aea7effcd1b435bc09fcde839c5775920290611e86908b908a908a908a90615aa9565b60405180910390a3505094509492505050565b6060606680546109d290615c91565b60d054604051636cbb2c1f60e01b81526000913391849184916001600160a01b0390911690636cbb2c1f90611ee390869086906004016155fe565b60206040518083038186803b158015611efb57600080fd5b505afa158015611f0f573d6000803e3d6000fd5b505050506040513d601f19601f82011682018060405250810190611f33919061439c565b905080611f525760405162461bcd60e51b8152600401610acd906157d0565b6000611f5d876125a2565b60cf5460405163200d8acb60e11b81529192506001600160a01b03169063401b159690611f909084908a90600401615a10565b602060405180830381600087803b158015611faa57600080fd5b505af1158015611fbe573d6000803e3d6000fd5b505050506040513d601f19601f82011682018060405250810190611fe291906148fe565b63ffffffff16979650505050505050565b611ca83383836133c8565b60d0546040516358afd96360e11b815260009182916001600160a01b039091169063b15fb2c6906120339086906004016154fe565b60206040518083038186803b15801561204b57600080fd5b505afa15801561205f573d6000803e3d6000fd5b505050506040513d601f19601f8201168201806040525081019061208391906140c7565b6001600160a01b031615159392505050565b61209f3383613092565b6120bb5760405162461bcd60e51b8152600401610acd906156a0565b610a618484848461346b565b6040516331a9108f60e11b81526000903090636352211e906120ed908590600401615a56565b60206040518083038186803b15801561210557600080fd5b505afa158015612119573d6000803e3d6000fd5b505050506040513d601f19601f8201168201806040525081019061213d91906140c7565b90506001600160a01b0381166121655760405162461bcd60e51b8152600401610acd906157f0565b919050565b600054610100900460ff161580801561218a5750600054600160ff909116105b806121a45750303b1580156121a4575060005460ff166001145b6121c05760405162461bcd60e51b8152600401610acd90615790565b6000805460ff1916600117905580156121e3576000805461ff0019166101001790555b61222a604051806040016040528060088152602001671391951a58dad95d60c21b81525060405180604001604052806005815260200164109316119560da1b81525061349e565b60ce80546001600160a01b038087166001600160a01b0319928316811790935560cf805487831690841617905560d0805491861691831691909117905560d2805463ffffffff60a01b1916600160a01b17905560c9805490911690911790558015610a61576000805461ff00191690556040517f7f26b83ff96e1f2b6a682f133852f6798a09c465da95921460cefb3847402498906122cb90600190615627565b60405180910390a150505050565b60606122e482612f83565b600082815260976020526040812080546122fd90615c91565b80601f016020809104026020016040519081016040528092919081815260200182805461232990615c91565b80156123765780601f1061234b57610100808354040283529160200191612376565b820191906000526020600020905b81548152906001019060200180831161235957829003601f168201915b50505050509050600061239460408051602081019091526000815290565b90508051600014156123a7575092915050565b8151156123d95780826040516020016123c19291906154e6565b60405160208183030381529060405292505050919050565b6115c0846134cf565b6123ea613a66565b6000806123f6886125a2565b92506000606061240585613542565b909250905080826124295760405162461bcd60e51b8152600401610acd9190615635565b5060d160009054906101000a90046001600160a01b03166001600160a01b0316631e2998f686338b8b8e8c6040518763ffffffff1660e01b8152600401612475969594939291906158d7565b600060405180830381600087803b15801561248f57600080fd5b505af11580156124a3573d6000803e3d6000fd5b505050506040513d6000823e601f3d908101601f191682016040526124cb919081019061445a565b919650945092506001600160a01b038416158015906124f257506001600160a01b03831615155b1561257d576001600160a01b0384163014156125725760d154604051629b3f3560e11b81526001600160a01b03909116906301367e6a9061253b90879087908f90600401615527565b600060405180830381600087803b15801561255557600080fd5b505af1158015612569573d6000803e3d6000fd5b5050505061257d565b61257d84848c61113d565b505050505b95945050505050565b6000612596836125a2565b61010001519392505050565b6125aa613a66565b60d054604051636cc4af3560e11b81526001600160a01b039091169063d9895e6a906125da908590600401615a56565b60006040518083038186803b1580156125f257600080fd5b505afa158015612606573d6000803e3d6000fd5b505050506040513d6000823e601f3d908101601f191682016040526109359190810190614420565b6040516341c1f9bb60e01b815260009073__$022f8deac3c8b34231be5f5ddee1e6fe44$__906341c1f9bb9061266b9060c99086906004016158a0565b60206040518083038186803b15801561268357600080fd5b505af4158015612697573d6000803e3d6000fd5b505050506040513d601f19601f82011682018060405250810190610935919061439c565b6126c3613a66565b6115bd8585858560026123e2565b60d05460405163e9461e4d60e01b81526000916001600160a01b03169063e9461e4d9061096c908690869060040161550c565b60d05460405163ebafa46560e01b81526000916001600160a01b03169063ebafa4659061119f9085906004016154fe565b600080336001600160a01b03871614806127df575060d0546040516358afd96360e11b81526001600160a01b039091169063b15fb2c69061277a9033906004016154fe565b60206040518083038186803b15801561279257600080fd5b505afa1580156127a6573d6000803e3d6000fd5b505050506040513d601f19601f820116820180604052508101906127ca91906140c7565b6001600160a01b0316866001600160a01b0316145b6127fb5760405162461bcd60e51b8152600401610acd906156d0565b60d05460405163e9461e4d60e01b815285916001600160a01b03169063e9461e4d9061282d908a908a9060040161550c565b60206040518083038186803b15801561284557600080fd5b505afa158015612859573d6000803e3d6000fd5b505050506040513d601f19601f8201168201806040525081019061287d9190614620565b101561289b5760405162461bcd60e51b8152600401610acd90615750565b60cf54604051630ee32a8960e41b81526000916001600160a01b03169063ee32a890906128d2908a908a908a908a9060040161554f565b602060405180830381600087803b1580156128ec57600080fd5b505af1158015612900573d6000803e3d6000fd5b505050506040513d601f19601f820116820180604052508101906129249190614620565b9450836001600160a01b0316866001600160a01b0316886001600160a01b03167f1e44a466dc279a2ea8e85765a21e4ce45e6a0c431f0754a26c9dc6f0bdc978188833604051612975929190615a64565b60405180910390a4949694955050505050565b612990613a66565b6000803361299d866125a2565b60409081015160d0549151636cbb2c1f60e01b815290916000916001600160a01b0390911690636cbb2c1f906129d990869086906004016155fe565b60206040518083038186803b1580156129f157600080fd5b505afa158015612a05573d6000803e3d6000fd5b505050506040513d601f19601f82011682018060405250810190612a29919061439c565b905080612a485760405162461bcd60e51b8152600401610acd906157d0565b6000612a53896125a2565b9050878160e001511015612a795760405162461bcd60e51b8152600401610acd906156b0565b6000612a848a61195f565b90506000612a918b611caf565b905082610100015160001415612ab95760405162461bcd60e51b8152600401610acd90615870565b610100830151612aca908b90613025565b965086811015612aec5760405162461bcd60e51b8152600401610acd90615880565b6101a083015160cf54604051632cfdc51760e11b81529199506001600160a01b0316906359fb8a2e90612b2990869033908c908890600401615956565b600060405180830381600087803b158015612b4357600080fd5b505af1158015612b57573d6000803e3d6000fd5b505050506040513d6000823e601f3d908101601f19168201604052612b7f9190810190614505565b8098508194505050816001600160a01b0316886001600160a01b0316336001600160a01b03167f1e44a466dc279a2ea8e85765a21e4ce45e6a0c431f0754a26c9dc6f0bdc978188a33604051612bd6929190615a64565b60405180910390a4898360e001511015612c025760405162461bcd60e51b8152600401610acd90615800565b60e0830151612c11908b613031565b60e0840152612c208b846113f3565b816001600160a01b0316886001600160a01b03168c7f2b8cc623e4a31bdab8c46dd78c0373b3364b5232d7fa63b34086acd2e091b57d8d8b33604051612c6893929190615a8e565b60405180910390a450909650505050509250925092565b612c87613a66565b60d054604051631dee28f760e01b81526000916001600160a01b031690631dee28f790612cb89033906004016154fe565b60206040518083038186803b158015612cd057600080fd5b505afa158015612ce4573d6000803e3d6000fd5b505050506040513d601f19601f82011682018060405250810190612d08919061439c565b80612d2c5750612d178561195f565b6001600160a01b0316336001600160a01b0316145b80612d505750612d3b8561195f565b6001600160a01b0316836001600160a01b0316145b612d6c5760405162461bcd60e51b8152600401610acd90615830565b612d75856125a2565b60cf5460405163207311b360e01b81529193506001600160a01b03169063207311b390612daa908590889088906004016159b6565b600060405180830381600087803b158015612dc457600080fd5b505af1158015612dd8573d6000803e3d6000fd5b505050506040513d6000823e601f3d908101601f19168201604052612e009190810190614420565b9150826001600160a01b0316826101a001516001600160a01b0316867f26112e6780cecc090f351f9f6b91763d059bb74ed4e555c80fc222f0b907cf258733604051612e4d929190615a64565b60405180910390a4509391925050565b611cac60c9826133a1565b60d05460405163f851ba1360e01b81526000916001600160a01b03169063f851ba139061096c908690869060040161550c565b600080856001600160a01b03166323b872dd868686604051602401612ec293929190615527565b6040516020818303038152906040529060e01b6020820180516001600160e01b038381831617835250505050604051612efb91906154da565b6000604051808303816000865af19150503d8060008114612f38576040519150601f19603f3d011682016040523d82523d6000602084013e612f3d565b606091505b5091509150818015612f67575080511580612f67575080806020019051810190612f67919061439c565b6115845760405162461bcd60e51b8152600401610acd90615890565b6000818152606760205260409020546001600160a01b0316611cac5760405162461bcd60e51b8152600401610acd906157f0565b600081815260696020526040902080546001600160a01b0319166001600160a01b0384169081179091558190612fec8261195f565b6001600160a01b03167f8c5be1e5ebec7d5bd14f71427d1e84f3dd0314c0f7b2291e5b200ac8c7c3b92560405160405180910390a45050565b60006109bc8284615c07565b60006109bc8284615c26565b60006109bc8284615bef565b610a61848484846040516024016130639493929190615646565b60408051601f198184030181529190526020810180516001600160e01b031663a7a8785360e01b1790526136f1565b60008061309e8361195f565b9050806001600160a01b0316846001600160a01b031614806130e557506001600160a01b038082166000908152606a602090815260408083209388168352929052205460ff165b806115c05750836001600160a01b03166130fe84610a67565b6001600160a01b031614949350505050565b826001600160a01b03166131238261195f565b6001600160a01b0316146131495760405162461bcd60e51b8152600401610acd906156e0565b6001600160a01b03821661316f5760405162461bcd60e51b8152600401610acd90615730565b61317c8383836001613712565b826001600160a01b031661318f8261195f565b6001600160a01b0316146131b55760405162461bcd60e51b8152600401610acd906156e0565b600081815260696020908152604080832080546001600160a01b03199081169091556001600160a01b0387811680865260688552838620805460001901905590871680865283862080546001019055868652606790945282852080549092168417909155905184937fddf252ad1be2c89b69c2b068fc378daa952ba7f163c4a11628f55a4df523b3ef91a4505050565b6001600160a01b03821661326b5760405162461bcd60e51b8152600401610acd906157a0565b6000818152606760205260409020546001600160a01b0316156132a05760405162461bcd60e51b8152600401610acd906156f0565b6132ae600083836001613712565b6000818152606760205260409020546001600160a01b0316156132e35760405162461bcd60e51b8152600401610acd906156f0565b6001600160a01b038216600081815260686020908152604080832080546001019055848352606790915280822080546001600160a01b0319168417905551839291907fddf252ad1be2c89b69c2b068fc378daa952ba7f163c4a11628f55a4df523b3ef908290a45050565b6000828152606760205260409020546001600160a01b03166133825760405162461bcd60e51b8152600401610acd90615770565b60008281526097602090815260409091208251610b1892840190613b14565b6001600160a01b03166000908152600191820160205260409020805460ff19169091179055565b816001600160a01b0316836001600160a01b031614156133fa5760405162461bcd60e51b8152600401610acd90615740565b6001600160a01b038381166000818152606a602090815260408083209487168084529490915290819020805460ff1916851515179055517f17307eab39ab6107e8899845ad3d59bd9653f200f220920489ca2b5937696c319061345e908590615619565b60405180910390a3505050565b613476848484613110565b6134828484848461379a565b610a615760405162461bcd60e51b8152600401610acd906156c0565b600054610100900460ff166134c55760405162461bcd60e51b8152600401610acd90615860565b611ca882826138a4565b60606134da82612f83565b60006134f160408051602081019091526000815290565b9050600081511161351157604051806020016040528060008152506109bc565b8061351b846138f2565b60405160200161352c9291906154e6565b6040516020818303038152906040529392505050565b6040805180820190915260138152721cd95b99195c881b9bdd08185c1c1c9bdd9959606a1b602082015281516001919061357b9061195f565b6001600160a01b0316336001600160a01b031614806135b5575082516135a090610a67565b6001600160a01b0316336001600160a01b0316145b8061363b575060d054604051631dee28f760e01b81526001600160a01b0390911690631dee28f7906135eb9033906004016154fe565b60206040518083038186803b15801561360357600080fd5b505afa158015613617573d6000803e3d6000fd5b505050506040513d601f19601f8201168201806040525081019061363b919061439c565b806136cb57506040516341c1f9bb60e01b815273__$022f8deac3c8b34231be5f5ddee1e6fe44$__906341c1f9bb9061367b9060c99033906004016158a0565b60206040518083038186803b15801561369357600080fd5b505af41580156136a7573d6000803e3d6000fd5b505050506040513d601f19601f820116820180604052508101906136cb919061439c565b1580156136e2575060408301516309000000908116145b156136ec57600091505b915091565b80516a636f6e736f6c652e6c6f67602083016000808483855afa5050505050565b6001811115610a61576001600160a01b03841615613758576001600160a01b03841660009081526068602052604081208054839290613752908490615c26565b90915550505b6001600160a01b03831615610a61576001600160a01b0383166000908152606860205260408120805483929061378f908490615bef565b909155505050505050565b60006001600160a01b0384163b1561389c57604051630a85bd0160e11b81526001600160a01b0385169063150b7a02906137de903390899088908890600401615584565b602060405180830381600087803b1580156137f857600080fd5b505af1925050508015613828575060408051601f3d908101601f19168201909252613825918101906143de565b60015b613882573d808015613856576040519150601f19603f3d011682016040523d82523d6000602084013e61385b565b606091505b50805161387a5760405162461bcd60e51b8152600401610acd906156c0565b805181602001fd5b6001600160e01b031916630a85bd0160e11b1490506115c0565b5060016115c0565b600054610100900460ff166138cb5760405162461bcd60e51b8152600401610acd90615860565b81516138de906065906020850190613b14565b508051610b18906066906020840190613b14565b606060006138ff8361398e565b60010190506000816001600160401b0381111561391e5761391e615d80565b6040519080825280601f01601f191660200182016040528015613948576020820181803683370190505b5090508181016020015b600019016f181899199a1a9b1b9c1cb0b131b232b360811b600a86061a8153600a850494508461398157613986565b613952565b509392505050565b60008072184f03e93ff9f4daa797ed6e38ed64bf6a1f0160401b83106139cd5772184f03e93ff9f4daa797ed6e38ed64bf6a1f0160401b830492506040015b6d04ee2d6d415b85acef810000000083106139f9576d04ee2d6d415b85acef8100000000830492506020015b662386f26fc100008310613a1757662386f26fc10000830492506010015b6305f5e1008310613a2f576305f5e100830492506008015b6127108310613a4357612710830492506004015b60648310613a55576064830492506002015b600a83106109355760010192915050565b604051806101c001604052806000815260200160006001600160a01b03168152602001600063ffffffff16815260200160006001600160a01b0316815260200160008152602001600081526020016000815260200160008152602001600081526020016000815260200160008152602001600081526020016060815260200160006001600160a01b031681525090565b60405180604001604052806002906020820280368337509192915050565b828054613b2090615c91565b90600052602060002090601f016020900481019282613b425760008555613b88565b82601f10613b5b57805160ff1916838001178555613b88565b82800160010185558215613b88579182015b82811115613b88578251825591602001919060010190613b6d565b50613b94929150613b98565b5090565b5b80821115613b945760008155600101613b99565b6000613bc0613bbb84615b45565b615b2e565b905082815260208101848484011115613bdb57613bdb600080fd5b613986848285615c59565b6000613bf4613bbb84615b45565b905082815260208101848484011115613c0f57613c0f600080fd5b613986848285615c65565b803561093581615d96565b805161093581615d96565b60008083601f840112613c4557613c45600080fd5b5081356001600160401b03811115613c5f57613c5f600080fd5b602083019150836020820283011115613c7a57613c7a600080fd5b9250929050565b803561093581615daa565b805161093581615daa565b803561093581615db2565b805161093581615db2565b60008083601f840112613cc257613cc2600080fd5b5081356001600160401b03811115613cdc57613cdc600080fd5b602083019150836001820283011115613c7a57613c7a600080fd5b600082601f830112613d0b57613d0b600080fd5b81356115c0848260208601613bad565b600082601f830112613d2f57613d2f600080fd5b81516115c0848260208601613be6565b600060608284031215613d5457613d54600080fd5b613d5e6060615b2e565b90506000613d6c848461407a565b8252506020613d7d8484830161407a565b6020830152506040613d918482850161407a565b60408301525092915050565b60006101c08284031215613db357613db3600080fd5b613dbe6101c0615b2e565b90506000613dcc848461406f565b8252506020613ddd84848301613c1a565b6020830152506040613df184828501614085565b6040830152506060613e0584828501613c1a565b6060830152506080613e198482850161406f565b60808301525060a0613e2d8482850161406f565b60a08301525060c0613e418482850161406f565b60c08301525060e0613e558482850161406f565b60e083015250610100613e6a8482850161406f565b61010083015250610120613e808482850161406f565b61012083015250610140613e968482850161406f565b61014083015250610160613eac8482850161406f565b610160830152506101808201356001600160401b03811115613ed057613ed0600080fd5b613edc84828501613cf7565b610180830152506101a0613ef284828501613c1a565b6101a08301525092915050565b60006101c08284031215613f1557613f15600080fd5b613f206101c0615b2e565b90506000613f2e848461407a565b8252506020613f3f84848301613c25565b6020830152506040613f5384828501614090565b6040830152506060613f6784828501613c25565b6060830152506080613f7b8482850161407a565b60808301525060a0613f8f8482850161407a565b60a08301525060c0613fa38482850161407a565b60c08301525060e0613fb78482850161407a565b60e083015250610100613fcc8482850161407a565b61010083015250610120613fe28482850161407a565b61012083015250610140613ff88482850161407a565b6101408301525061016061400e8482850161407a565b610160830152506101808201516001600160401b0381111561403257614032600080fd5b61403e84828501613d1b565b610180830152506101a0613ef284828501613c25565b600060a0828403121561406957614069600080fd5b50919050565b803561093581615dc2565b805161093581615dc2565b803561093581615dc8565b805161093581615dc8565b803561093581615dd4565b6000602082840312156140bb576140bb600080fd5b60006115c08484613c1a565b6000602082840312156140dc576140dc600080fd5b60006115c08484613c25565b600080604083850312156140fe576140fe600080fd5b600061410a8585613c1a565b925050602061411b85828601613c1a565b9150509250929050565b60008060006060848603121561413d5761413d600080fd5b60006141498686613c1a565b935050602061415a86828701613c1a565b925050604061416b86828701613c1a565b9150509250925092565b6000806000806080858703121561418e5761418e600080fd5b600061419a8787613c1a565b94505060206141ab87828801613c1a565b93505060406141bc87828801613c1a565b92505060606141cd8782880161406f565b91505092959194509250565b6000806000606084860312156141f1576141f1600080fd5b60006141fd8686613c1a565b935050602061420e86828701613c1a565b925050604061416b8682870161406f565b6000806000806080858703121561423857614238600080fd5b60006142448787613c1a565b945050602061425587828801613c1a565b93505060406142668782880161406f565b92505060606141cd87828801613c1a565b6000806000806080858703121561429057614290600080fd5b600061429c8787613c1a565b94505060206142ad87828801613c1a565b93505060406142be8782880161406f565b92505060608501356001600160401b038111156142dd576142dd600080fd5b6141cd87828801613cf7565b600080604083850312156142ff576142ff600080fd5b600061430b8585613c1a565b925050602061411b85828601613c81565b6000806040838503121561433257614332600080fd5b600061433e8585613c1a565b92505060208301356001600160401b0381111561435d5761435d600080fd5b61411b85828601613d9d565b6000806040838503121561437f5761437f600080fd5b600061438b8585613c1a565b925050602061411b8582860161406f565b6000602082840312156143b1576143b1600080fd5b60006115c08484613c8c565b6000602082840312156143d2576143d2600080fd5b60006115c08484613c97565b6000602082840312156143f3576143f3600080fd5b60006115c08484613ca2565b60006060828403121561441457614414600080fd5b60006115c08484613d3f565b60006020828403121561443557614435600080fd5b81516001600160401b0381111561444e5761444e600080fd5b6115c084828501613eff565b60008060006060848603121561447257614472600080fd5b83516001600160401b0381111561448b5761448b600080fd5b61449786828701613eff565b93505060206144a886828701613c25565b925050604061416b86828701613c25565b600080608083850312156144cf576144cf600080fd5b82516001600160401b038111156144e8576144e8600080fd5b6144f485828601613eff565b925050602061411b85828601613d3f565b6000806040838503121561451b5761451b600080fd5b82516001600160401b0381111561453457614534600080fd5b61454085828601613eff565b925050602061411b8582860161407a565b60006020828403121561456657614566600080fd5b81356001600160401b0381111561457f5761457f600080fd5b6115c084828501614054565b6000806000604084860312156145a3576145a3600080fd5b83356001600160401b038111156145bc576145bc600080fd5b6145c886828701614054565b93505060208401356001600160401b038111156145e7576145e7600080fd5b6145f386828701613cad565b92509250509250925092565b60006020828403121561461457614614600080fd5b60006115c0848461406f565b60006020828403121561463557614635600080fd5b60006115c0848461407a565b6000806040838503121561465757614657600080fd5b600061410a858561406f565b6000806040838503121561467957614679600080fd5b6000614685858561407a565b925050602061411b85828601613c25565b600080600080608085870312156146af576146af600080fd5b600061419a878761406f565b60008060008060008060008060c0898b0312156146da576146da600080fd5b60006146e68b8b61406f565b98505060206146f78b828c01613c1a565b97505060406147088b828c01613c1a565b96505060606147198b828c0161406f565b95505060808901356001600160401b0381111561473857614738600080fd5b6147448b828c01613c30565b945094505060a08901356001600160401b0381111561476557614765600080fd5b6147718b828c01613c30565b92509250509295985092959890939650565b600080600080600060a0868803121561479e5761479e600080fd5b60006147aa888861406f565b95505060206147bb88828901613c1a565b94505060406147cc88828901613c1a565b93505060606147dd8882890161406f565b92505060806147ee8882890161409b565b9150509295509295909350565b6000806040838503121561481157614811600080fd5b600061433e858561406f565b6000806040838503121561483357614833600080fd5b600061438b858561406f565b60008060006060848603121561485757614857600080fd5b6000614863868661406f565b935050602061415a8682870161406f565b6000806000806080858703121561488d5761488d600080fd5b6000614899878761406f565b94505060206141ab8782880161406f565b600080604083850312156148c0576148c0600080fd5b60006148cc858561406f565b925050602061411b85828601614085565b6000602082840312156148f2576148f2600080fd5b60006115c08484614085565b60006020828403121561491357614913600080fd5b60006115c08484614090565b60008060006060848603121561493757614937600080fd5b60006149438686614090565b93505060206149548682870161407a565b925050604061416b8682870161407a565b60006149718383614985565b505060200190565b600061497183836154bf565b61498e81615c3d565b82525050565b8183526000602084019350818060005b858110156149d1576149b68284615b6f565b6149c08882614965565b9750602083019250506001016149a4565b509495945050505050565b6002818060005b838110156115845781516149f78782614979565b9650602083019250506001016149e3565b81835260006020840193506001600160fb1b03831115614a2a57614a2a600080fd5b602083029250614a3b838584615c59565b50500190565b80151561498e565b8183526000602084019350614a5f838584615c59565b601f19601f8401165b9093019392505050565b6000614a7c825190565b808452602084019350614a93818560208601615c65565b601f19601f820116614a68565b6000614aaa825190565b614ab8818560208601615c65565b9290920192915050565b61498e81615c4e565b602381526000602082017f72656c656173655469636b65743a206372656469747320646f6e27742061646481526202075760ec1b602082015291505b5060400190565b602181526000602082017f72656c656173655469636b65743a2061727261797320646f6e2774206d6174638152600d60fb1b60208201529150614b07565b602d81526000602082017f4552433732313a2063616c6c6572206973206e6f7420746f6b656e206f776e6581526c1c881bdc88185c1c1c9bdd9959609a1b60208201529150614b07565b602381526000602082017f776974684472774562433a206e6f7420656e6f7567682063726564697473206c81526219599d60ea1b60208201529150614b07565b603281526000602082017f4552433732313a207472616e7366657220746f206e6f6e20455243373231526581527131b2b4bb32b91034b6b83632b6b2b73a32b960711b60208201529150614b07565b602c81526000602082017f776974684472617745524332303a20796f7520617265206e6f7420746865206181526b31b1b7bab73a1037bbb732b960a11b60208201529150614b07565b602581526000602082017f4552433732313a207472616e736665722066726f6d20696e636f72726563742081526437bbb732b960d91b60208201529150614b07565b601c81526000602082017f4552433732313a20746f6b656e20616c7265616479206d696e74656400000000815291505b5060200190565b600a81526000602082016906973206e6f74204d54560b41b81529150614ce0565b60128152600060208201716e6f20746f70557020666f7220434552547360701b81529150614ce0565b601d81526000602082017f736574417070726f76616c2870726f636573736f7229206661696c656400000081529150614ce0565b602481526000602082017f4552433732313a207472616e7366657220746f20746865207a65726f206164648152637265737360e01b60208201529150614b07565b601981526000602082017f4552433732313a20617070726f766520746f2063616c6c65720000000000000081529150614ce0565b602381526000602082017f776974684472617745524332303a20696e73756666696369656e742062616c618152626e636560e81b60208201529150614b07565b602981526000602082017f4552433732313a2061646472657373207a65726f206973206e6f7420612076618152683634b21037bbb732b960b91b60208201529150614b07565b602e81526000602082017f45524337323155524953746f726167653a2055524920736574206f66206e6f6e81526d32bc34b9ba32b73a103a37b5b2b760911b60208201529150614b07565b602781526000602082017f72656c656173655469636b65743a206372656469747320646f6e74206d617463815266682076616c756560c81b60208201529150614b07565b602e81526000602082017f496e697469616c697a61626c653a20636f6e747261637420697320616c72656181526d191e481a5b9a5d1a585b1a5e995960921b60208201529150614b07565b60208082527f4552433732313a206d696e7420746f20746865207a65726f206164647265737391019081526000614ce0565b602481526000602082017f72656c656173655469636b65743a20726576656e756520646f65736e742061648152630642075760e41b60208201529150614b07565b602881526000602082017f72656c656173655469636b65743a2077726f6e6720636f6d70616e792044657381526706320666f722053560c41b60208201529150614b07565b601c81526000602082017f756e7175616c696669656420736572766963652070726f76696465720000000081529150614ce0565b6014815260006020820173746f7055703a206f726465724944207374616c6560601b81529150614ce0565b601881526000602082017f4552433732313a20696e76616c696420746f6b656e204944000000000000000081529150614ce0565b602881526000602082017f7769746844726177455243323062433a206e6f7420656e6f75676820637265648152671a5d1cc81b19599d60c21b60208201529150614b07565b602181526000602082017f4552433732313a20617070726f76616c20746f2063757272656e74206f776e658152603960f91b60208201529150614b07565b603181526000602082017f7365745469636b6574446174613a206f6e6c7920666f72207175616c69666965815270321029a8399037b9103932b9b2b63632b960791b60208201529150614b07565b602881526000602082017f6f6e6c79205350206f72206f776e65722063616e20636c61696d2045524332308152672062616c616e636560c01b60208201529150614b07565b603d81526000602082017f4552433732313a20617070726f76652063616c6c6572206973206e6f7420746f81527f6b656e206f776e6572206f7220617070726f76656420666f7220616c6c00000060208201529150614b07565b601881526000602082017f6e656720616c6c6f77616e636520696e2072656c65617365000000000000000081529150614ce0565b602b81526000602082017f496e697469616c697a61626c653a20636f6e7472616374206973206e6f74206981526a6e697469616c697a696e6760a81b60208201529150614b07565b60118152600060208201700776974684472774562433a207070433d3607c1b81529150614ce0565b60208082527f776974684472774562433a20696e73756666696369656e742062616c616e636591019081526000614ce0565b602481526000602082017f5472616e7366657248656c7065723a205452414e534645525f46524f4d5f46418152631253115160e21b60208201529150614b07565b80516000906101c084019061532185826154bf565b5060208301516153346020860182614985565b50604083015161534760408601826154c5565b50606083015161535a6060860182614985565b50608083015161536d60808601826154bf565b5060a083015161538060a08601826154bf565b5060c083015161539360c08601826154bf565b5060e08301516153a660e08601826154bf565b506101008301516153bb6101008601826154bf565b506101208301516153d06101208601826154bf565b506101408301516153e56101408601826154bf565b506101608301516153fa6101608601826154bf565b506101808301518482036101808601526154148282614a72565b9150506101a08301516139866101a0860182614985565b600060a0830161543b8380615be0565b61544585826154c5565b506154536020840184615bd1565b61546060208601826154bf565b5061546e6040840184615b7e565b8583036040870152615481838284614994565b925050506154926060840184615b7e565b85830360608701526154a5838284614a08565b925050506154b66080840184615bd1565b61398660808601825b8061498e565b63ffffffff811661498e565b60ff811661498e565b60006109bc8284614aa0565b60006154f28285614aa0565b91506115c08284614aa0565b602081016109358284614985565b6040810161551a8285614985565b6109bc6020830184614985565b606081016155358286614985565b6155426020830185614985565b6115c060408301846154bf565b6080810161555d8287614985565b61556a6020830186614985565b61557760408301856154bf565b6125826060830184614985565b608081016155928287614985565b61559f6020830186614985565b6155ac60408301856154bf565b81810360608301526155be8184614a72565b9695505050505050565b604081016155d68285614985565b6109bc6020830184614a41565b604081016155f18285614985565b6109bc60208301846154bf565b6040810161560c8285614985565b6109bc60208301846154c5565b602081016109358284614a41565b602081016109358284614ac2565b602080825281016109bc8184614a72565b608080825281016156578187614a72565b905061566660208301866154bf565b61567360408301856154bf565b61258260608301846154bf565b6020808252810161093581614acb565b6020808252810161093581614b0e565b6020808252810161093581614b4c565b6020808252810161093581614b96565b6020808252810161093581614bd6565b6020808252810161093581614c25565b6020808252810161093581614c6e565b6020808252810161093581614cb0565b6020808252810161093581614ce7565b6020808252810161093581614d08565b6020808252810161093581614d31565b6020808252810161093581614d65565b6020808252810161093581614da6565b6020808252810161093581614dda565b6020808252810161093581614e1a565b6020808252810161093581614e60565b6020808252810161093581614eab565b6020808252810161093581614eef565b6020808252810161093581614f3a565b6020808252810161093581614f6c565b6020808252810161093581614fad565b6020808252810161093581614ff2565b6020808252810161093581615026565b6020808252810161093581615051565b6020808252810161093581615085565b60208082528101610935816150ca565b6020808252810161093581615108565b6020808252810161093581615156565b602080825281016109358161519b565b60208082528101610935816151f5565b6020808252810161093581615229565b6020808252810161093581615271565b6020808252810161093581615299565b60208082528101610935816152cb565b8281526040810161551a565b828152604081015b81810360208301526115c0818461530c565b602080825281016109bc818461530c565b60c080825281016158e8818961530c565b90506158f76020830188614985565b6159046040830187614985565b61591160608301866154bf565b61591e6080830185614985565b61592b60a08301846154d1565b979650505050505050565b60608082528101615947818661530c565b90506155426020830185614985565b60808082528101615967818761530c565b905061556a6020830186614985565b60608082528101615987818561530c565b90506109bc60208301846149dc565b604080825281016159a7818561530c565b90506109bc60208301846154bf565b606080825281016159c7818661530c565b90506159d660208301856154bf565b6115c06040830184614985565b608080825281016159f4818761530c565b9050615a0360208301866154bf565b6156736040830185614985565b60408082528101615a21818561530c565b90506109bc60208301846154c5565b60408082528101615a41818661542b565b905081810360208301526115bd818486614a49565b6020810161093582846154bf565b6040810161551a82856154bf565b604081016158b482856154bf565b604081016155f182856154bf565b60608101615a9c82866154bf565b6159d660208301856154bf565b60808101615ab782876154bf565b61566660208301866154bf565b60608101615a9c82866154c5565b6000808335601e1936859003018112615aed57615aed600080fd5b8084019250823591506001600160401b03821115615b0d57615b0d600080fd5b60209283019282023603831315615b2657615b26600080fd5b509250929050565b6000615b3960405190565b90506121658282615cb8565b60006001600160401b03821115615b5e57615b5e615d80565b601f19601f83011660200192915050565b60006109bc6020840184613c1a565b6000808335601e1936859003018112615b9957615b99600080fd5b8381016020810193503591506001600160401b03821115615bbc57615bbc600080fd5b602082023603841315615b2657615b26600080fd5b60006109bc602084018461406f565b60006109bc6020840184614085565b60008219821115615c0257615c02615d28565b500190565b6000816000190483118215151615615c2157615c21615d28565b500290565b600082821015615c3857615c38615d28565b500390565b60006001600160a01b038216610935565b600060ff8216610935565b82818337506000910152565b60005b83811015615c80578181015183820152602001615c68565b83811115610a615750506000910152565b600281046001821680615ca557607f821691505b6020821081141561406957614069615d54565b601f19601f83011681018181106001600160401b0382111715615cdd57615cdd615d80565b6040525050565b600063ffffffff8216915063ffffffff821415615d0357615d03615d28565b5060010190565b63ffffffff9182169116600082615d2357615d23615d3e565b500690565b634e487b7160e01b600052601160045260246000fd5b634e487b7160e01b600052601260045260246000fd5b634e487b7160e01b600052602260045260246000fd5b634e487b7160e01b600052603260045260246000fd5b634e487b7160e01b600052604160045260246000fd5b615d9f81615c3d565b8114611cac57600080fd5b801515615d9f565b6001600160e01b03198116615d9f565b80615d9f565b63ffffffff8116615d9f565b60ff8116615d9f56fe72656c656173655469636b65743a20746f74616c526576656e75652025732c20726576656e75655b305d3d257320726576656e75655b315d3d2573a26469706673582212204eeac3077e6d622218706c35fe69154525e209013735b821f3ba6f53c6c4b4c564736f6c63430008070033",
  "linkReferences": {
    "contracts/libs/TicketLibrary.sol": {
      "TicketLibrary": [
        {
          "length": 20,
          "start": 5653
        },
        {
          "length": 20,
          "start": 6745
        },
        {
          "length": 20,
          "start": 7458
        },
        {
          "length": 20,
          "start": 9825
        },
        {
          "length": 20,
          "start": 13937
        }
      ]
    }
  },
  "deployedLinkReferences": {
    "contracts/libs/TicketLibrary.sol": {
      "TicketLibrary": [
        {
          "length": 20,
          "start": 5620
        },
        {
          "length": 20,
          "start": 6712
        },
        {
          "length": 20,
          "start": 7425
        },
        {
          "length": 20,
          "start": 9792
        },
        {
          "length": 20,
          "start": 13904
        }
      ]
    }
  }
}